:020000041000EA
:1000000000B52F4B212058609868022188439860E2
:10001000D860186158612B4B002199600221596109
:100020000121F02299502849196001219960352059
:1000300000F03EF80222904214D00621196600F02A
:100040002EF8196E01211966002018661A6600F054
:1000500026F8196E196E196E052000F029F8012195
:100060000842F9D1002199601849196000215960AE
:1000700017491848016001219960EB211966A021F8
:10008000196600F00CF800219960134911480160CD
:100090000121996001BC002800D11048004703B538
:1000A000996A04200142FBD001200142F8D103BD2E
:1000B00002B518661866FFF7F2FF186E186E02BDDB
:1000C00000000240000000180000070000035F006D
:1000D00021220000F4000018222000A001010010DD
:1000E0000000000000000000000000000000000010
:1000F0000000000000000000000000003E272A6011
:10010000274800E000202749886006C881F3088856
:10011000104725480068002839D112A40ECC0029C8
:1001200002D000F012F8F9E72049214A002000E04F
:1001300001C19142FCD11F4988471F4988471F4987
:10014000884700BEFDE701C901C29A42FBD3704750
:10015000F2EB8871D4900010F4900010640100104C
:1001600090A31AE7F4900010C0000020CC0B0020F0
:10017000009C00100000042000000420009C0010DF
:1001800000100420001004200000000070470C48FC
:1001900003F03CFC0047EFF30580C0B2704700005D
:1001A0000002001000ED00E0000000D0D00B0020A5
:1001B0008819002045200010710300104D21001007
:1001C0005756000006005250ABB360539C8A001093
:1001D00006005250861C0302AC8A001006005250E2
:1001E0005422A29DB88A001005005250DE65F468C2
:1001F000009C001000000000000000000000000053
:100200000020042013010010C3020010C5020010DA
:10021000C1020010C1020010C1020010C102001092
:10022000C1020010C1020010C1020010C70200107C
:10023000C1020010C1020010C9020010CB02001060
:10024000CD020010CD020010CD020010CD02001032
:10025000CD020010CD020010CD020010CD02001022
:10026000CD020010CD020010CD020010CD02001012
:10027000CD020010CD020010CD020010CD02001002
:10028000CD020010CD020010CD020010CD020010F2
:10029000CD020010CD020010CD020010CD020010E2
:1002A000CD020010CD020010CD020010CD020010D2
:1002B000CD020010CD020010CD020010CD020010C2
:1002C00000BE00BE00BE00BE00BE00BEFFF763FF62
:1002D000103800BEF8B5C0460448054B10B583423F
:1002E00003D0044B002B00D0984710BDCC0B00204E
:1002F000CC0B00200000000006480749091A8910AD
:10030000CB0F591810B5491003D0044B002B00D067
:10031000984710BDCC0B0020CC0B00200000000043
:1003200010B5074C2378002B09D1FFF7D5FF054BFB
:10033000002B02D0044800E000BF0123237010BD51
:10034000D80B002000000000F87C0010054B10B511
:10035000002B03D00449054800E000BFFFF7CCFFA5
:1003600010BDC04600000000DC0B0020F87C00102F
:1003700070B504F0E7FC06F0EBFFEE4C02252560BB
:10038000ED4B1A688023DB015340E022D201134079
:10039000EA4A1360002000F01DFD012000F01AFD64
:1003A000022000F017FD032000F014FD042000F0EF
:1003B00011FD052000F00EFD062000F00BFD0720CA
:1003C00000F008FD082000F005FD092000F002FD06
:1003D0000A2000F0FFFC0B2000F0FCFCD0231B06E1
:1003E00001225A625D6203325A6208215962083161
:1003F000596210315962203159624031596280315D
:1004000059620131FF3159628021C900596280214E
:10041000090159622260C84B1B68DB05FBD5C64B3E
:1004200058680004000C04F01BFAC54904F010FAE7
:1004300004F072FAC34AC44B03F085FDC34AC44BAF
:1004400003F093FD02000B000020C24903F07BFD86
:1004500003F04CFE061C04F05FFA02000B00BE48DD
:1004600004F064FC0324002544E1002C00D03AE1B0
:10047000BA49301C04F0ECF904F014FA0A2103F034
:10048000F1FAD0231B0601225A6101329A6102322D
:100490009A6104329A61092900D924E18900B04B9C
:1004A0005B589F46D0231B06802212019A6180224E
:1004B00092009A61813AFF3A9A61603A9A61103AE1
:1004C0009A618022D2009A61802252005A61C03A19
:1004D0005A6108E1D0231B06802212015A61802252
:1004E00092009A61813AFF3A9A61603A5A61103AF1
:1004F0005A618022D2005A61802252005A61C03A69
:100500005A61F0E0D0231B06802212019A618022FA
:1005100092009A61813AFF3A5A61603A9A61103AC0
:100520009A618022D2005A61802252009A61C03AB8
:100530005A61D8E0D0231B06802212019A618022E2
:1005400092009A61813AFF3A9A61603A9A61103A50
:100550005A618022D2005A61802252009A61C03AC8
:100560005A61C0E0D0231B06802212015A6180220A
:1005700092009A61813AFF3A9A61603A5A61103A60
:100580005A618022D2009A61802252009A61C03A58
:100590005A61A8E0D0231B06802212019A618022B2
:1005A00092005A61813AFF3A9A61603A9A61103A30
:1005B0005A618022D2009A61802252009A61C03A28
:1005C0005A6190E0D0231B06802212015A618022DA
:1005D00092005A61813AFF3A9A61603A9A61103A00
:1005E0009A618022D2009A61802252009A61C03AB8
:1005F0005A6178E0D0231B06802212019A61802282
:1006000092009A61813AFF3A9A61603A5A61103ACF
:100610005A618022D2005A61802252005A61C03A47
:100620005A6160E0D0231B06802212019A61802269
:1006300092009A61813AFF3A9A61603A9A61103A5F
:100640009A618022D2009A61802252009A61C03A57
:100650005A6148E0D0231B06802212019A61802251
:1006600092009A61813AFF3A9A61603A5A61103A6F
:100670005A618022D2009A61802252009A61C03A67
:100680005A6130E0301C04F00DF90A2103F0EAF958
:10069000D0231B0601229A6101329A6102325A610B
:1006A00004329A6109291AD889002E4B5B589F465B
:1006B000D0231B06802212019A61802292009A6147
:1006C000813AFF3A9A61603A9A61103A9A618022BF
:1006D000D2009A61802252005A61C03A5A61D023F6
:1006E0001B0640229A610135013C00D516E3052026
:1006F00001F0C8F8012C00D112E100DCB5E6022CB3
:10070000C0D0032CEFD11849301C04F09CF804F041
:10071000C9F8D0231B0601229A6101329A61023284
:100720009A6104325A610928DDD880000F4B1B58AA
:100730009F46C04600E0044000C0044000D0044092
:100740003333533A643BDF4F8D97E63F7FC2D9ADD9
:1007500065325C3F00003B40987D00100000C842BD
:10076000F87C0010207D001000002041487D001022
:10077000D0231B06802212015A61802292009A61C6
:10078000813AFF3A9A61603A5A61103A5A6180227E
:10079000D2005A61802252005A61C03A5A619EE7E3
:1007A000D0231B06802212019A61802292009A6156
:1007B000813AFF3A5A61603A9A61103A9A6180220E
:1007C000D2005A61802252009A61C03A5A6186E78B
:1007D000D0231B06802212019A61802292009A6126
:1007E000813AFF3A9A61603A9A61103A5A618022DE
:1007F000D2005A61802252009A61C03A5A616EE773
:10080000D0231B06802212015A61802292009A6135
:10081000813AFF3A9A61603A5A61103A5A618022ED
:10082000D2009A61802252009A61C03A5A6156E71A
:10083000D0231B06802212019A61802292005A6105
:10084000813AFF3A9A61603A9A61103A5A6180227D
:10085000D2009A61802252009A61C03A5A613EE702
:10086000D0231B06802212015A61802292005A6115
:10087000813AFF3A9A61603A9A61103A9A6180220D
:10088000D2009A61802252009A61C03A5A6126E7EA
:10089000D0231B06802212019A61802292009A6165
:1008A000813AFF3A9A61603A5A61103A5A6180225D
:1008B000D2005A61802252005A61C03A5A610EE752
:1008C000D0231B06802212019A61802292009A6135
:1008D000813AFF3A9A61603A9A61103A9A618022AD
:1008E000D2009A61802252009A61C03A5A61F6E6BB
:1008F000D0231B06802212019A61802292009A6105
:10090000813AFF3A9A61603A5A61103A5A618022FC
:10091000D2009A61802252009A61C03A5A61DEE6A2
:10092000F049301C03F094FF03F0BCFF0A2103F0F0
:1009300099F8D0231B0601229A6101325A610232D2
:100940009A6104329A61092900D9CCE68900E64B04
:100950005B589F46D0231B06802212019A61802299
:1009600092009A61813AFF3A9A61603A9A61103A2C
:100970009A618022D2009A61802252005A61C03A64
:100980005A61B0E6D0231B06802212015A618022F0
:1009900092009A61813AFF3A9A61603A5A61103A3C
:1009A0005A618022D2005A61802252005A61C03AB4
:1009B0005A6198E6D0231B06802212019A61802298
:1009C00092009A61813AFF3A5A61603A9A61103A0C
:1009D0009A618022D2005A61802252009A61C03A04
:1009E0005A6180E6D0231B06802212019A61802280
:1009F00092009A61813AFF3A9A61603A9A61103A9C
:100A00005A618022D2005A61802252009A61C03A13
:100A10005A6168E6D0231B06802212015A618022A7
:100A200092009A61813AFF3A9A61603A5A61103AAB
:100A30005A618022D2009A61802252009A61C03AA3
:100A40005A6150E6D0231B06802212019A6180224F
:100A500092005A61813AFF3A9A61603A9A61103A7B
:100A60005A618022D2009A61802252009A61C03A73
:100A70005A6138E6D0231B06802212015A61802277
:100A800092005A61813AFF3A9A61603A9A61103A4B
:100A90009A618022D2009A61802252009A61C03A03
:100AA0005A6120E6D0231B06802212019A6180221F
:100AB00092009A61813AFF3A9A61603A5A61103A1B
:100AC0005A618022D2005A61802252005A61C03A93
:100AD0005A6108E6D0231B06802212019A61802207
:100AE00092009A61813AFF3A9A61603A9A61103AAB
:100AF0009A618022D2009A61802252009A61C03AA3
:100B00005A61F0E5D0231B06802212019A618022EF
:100B100092009A61813AFF3A9A61603A5A61103ABA
:100B20005A618022D2009A61802252009A61C03AB2
:100B30005A61D8E5D0231B06802212019A618022D7
:100B400092009A61813AFF3A9A61603A9A61103A4A
:100B50009A618022D2009A61802252005A61C03A82
:100B60005A61C0E5D0231B06802212015A618022FF
:100B700092009A61813AFF3A9A61603A5A61103A5A
:100B80005A618022D2005A61802252005A61C03AD2
:100B90005A61A8E5D0231B06802212019A618022A7
:100BA00092009A61813AFF3A5A61603A9A61103A2A
:100BB0009A618022D2005A61802252009A61C03A22
:100BC0005A6190E5D0231B06802212019A6180228F
:100BD00092009A61813AFF3A9A61603A9A61103ABA
:100BE0005A618022D2005A61802252009A61C03A32
:100BF0005A6178E5D0231B06802212015A618022B7
:100C000092009A61813AFF3A9A61603A5A61103AC9
:100C10005A618022D2009A61802252009A61C03AC1
:100C20005A6160E5D0231B06802212019A6180225E
:100C300092005A61813AFF3A9A61603A9A61103A99
:100C40005A618022D2009A61802252009A61C03A91
:100C50005A6148E5D0231B06802212015A61802286
:100C600092005A61813AFF3A9A61603A9A61103A69
:100C70009A618022D2009A61802252009A61C03A21
:100C80005A6130E5D0231B06802212019A6180222E
:100C900092009A61813AFF3A9A61603A5A61103A39
:100CA0005A618022D2005A61802252005A61C03AB1
:100CB0005A6118E5D0231B06802212019A61802216
:100CC00092009A61813AFF3A9A61603A9A61103AC9
:100CD0009A618022D2009A61802252009A61C03AC1
:100CE0005A6100E500002041707D0010D0231B06F2
:100CF000802212019A61802292009A61813AFF3A21
:100D00009A61603A5A61103A5A618022D2009A611F
:100D1000802252009A61C03A5A61E4E4642D01D005
:100D20000324E4E4164B04221A60164B1B68DB050F
:100D3000FBD5144B58680004000C03F091FD1249D8
:100D400003F086FD03F0E8FD104A114B03F0FBF8B9
:100D5000104A114B03F009F902000B0000200F4963
:100D600003F0F1F803F0C2F9061C03F0D5FD020010
:100D70000B000B4803F0DAFF03240025B7E4C0465C
:100D800000E0044000C004403333533A643BDF4F7B
:100D90008D97E63F7FC2D9AD65325C3F00003B4096
:100DA000987D001010B58300084A944663441C687F
:100DB00040226240C02414408022520113431C6030
:100DC000C000034B9C466044416010BD04C001401C
:100DD0000040014010B501238340D02212069362E7
:100DE00093610521FFF7DEFF10BD0000EFF31080D7
:100DF00072B6034B1B68002BFBD0BFF35F8F7047AD
:100E00002C0100D0BFF35F8F024B00221A6080F3E9
:100E1000108870472C0100D070B504000E0015003A
:100E2000FFF7E4FFF308E3181978072232400C00BB
:100E3000D440E40706D40124944021431970FFF7FD
:100E4000E1FF70BD3100280001F0A2F9F0B583B0D8
:100E50000700019114001E00FFF7C8FFB4420FD82D
:100E6000E308FB181978072222400D00D540ED0752
:100E700001D50134F2E7012696403143197001E0B3
:100E800001246442FFF7BEFF002C02DB200003B008
:100E9000F0BD019B002BF9D0089801F079F9000012
:100EA000002307E0054A9A189200BFF35F8F0021E4
:100EB000116001331F2BF5D97047C0464000003444
:100EC000054A1078431CDBB21370172B02D91300AC
:100ED00010221A707047C046B802002000B583B0D7
:100EE0000100044B00931F2318220348FFF7AEFFB5
:100EF00003B000BDAC7D0010A80F0020034B1B68A1
:100F000002201840431E9841C0B2704700C00640FE
:100F100040BF00200021704710B5002922D003688F
:100F20001B7B99421ED8174B9C466144090183687C
:100F30009C4661440C684968002A19D003681B7BF1
:100F40009A4215D883680F488446624412019A1861
:100F500010685368020001208B4201D80ED0002097
:100F6000C0B210BD084B094A3F21094801F0F2F810
:100F7000054B064A3F21064801F0ECF8A242EFD8A3
:100F8000EDE7C046FFFFFF0F5C7F0010207E0010E2
:100F9000807F001010B500291FD0037B99421CD818
:100FA0004B005B18033B0468A446634400291AD035
:100FB000002A1ED0914222D0002A26D0047BA242D1
:100FC00023D80468500080180338201881701978DD
:100FD000002920D041701A7010BD104B104A4D21CD
:100FE000104801F0B7F8104B104A53310D4801F08A
:100FF000B1F80F4B0D4A54210A4801F0ABF80D4BE4
:101000000A4A5521074801F0A5F8044B044A4D212E
:10101000044801F09FF81A70DEE7C046D87F001040
:10102000C87D0010F47F00103C800010D47D0010BB
:10103000488000105480001070B506000D001400A8
:1010400000290BD0002A12D08068736898470028C6
:1010500006D12A0021003000FFF79CFF200070BD60
:10106000220029003000FFF795FF2C00F6E70C0066
:10107000F4E70000F0B583B00700009201930BABDA
:101080001E780A9B002B28D00268DBB2517B8B4272
:1010900008D10123002B1AD10A9B002B3AD10A98C0
:1010A00003B0F0BD002B0CD0117B8B4209D8116826
:1010B0005A00D318033BCB189B78002BEAD00123AE
:1010C000E8E7424B424A4D21424801F043F8424B87
:1010D000424A5521424801F03DF803689C7B002CB0
:1010E00001D10A94D8E7002C0ED01A7B94420BD879
:1010F00062001219033A19688C46624452789A7356
:10110000002AEED1DA73ECE7304B314A4D213148F9
:1011100001F020F8DDB2002D40D03B681B7B9D42E2
:101120003CD8304BEB181B01BA68944663440099D5
:10113000019A19605A60089A9A60099ADA60D02375
:101140001B06802212035A613C68002D2CD031D03E
:10115000237B9D422ED86B005B19033B226894468B
:10116000634400229A705A701A70617B2A00200032
:10117000FFF762FF60730A9B984200D08FE7387DCB
:10118000009A019B00F082FC041E01D0002E17D0B3
:101190000C9B002B00D182E71C7080E7124B134A96
:1011A0003F210F4800F0D6FF114B124A7721094822
:1011B00000F0D0FF054B064A4D21064800F0CAFF5B
:1011C0003868290000F0C2FEE2E7C046D87F001070
:1011D000C87D0010F47F00108C7E0010407E00104F
:1011E000807F0010FFFFFF0F5C7F0010207E00104B
:1011F000B07E0010E87D0010F0B5D6464F4646465A
:10120000C0B58CB00B908200AD4BD65897E0AD4B7B
:10121000AD4A3F21AD4800F09DFF002B02D1002ACE
:1012200000D0B2E00121280000F086FEA04217D1D4
:101230003A687B6808920993BD68FB689846002D60
:1012400014D0002C18D033681B7B9C4214D8631E2A
:10125000F268D35C9A461B021843306100209CE080
:101260009B4B9C4A7D21994800F074FF9A4B994A08
:101270008121964800F06EFF924B984A4421934892
:1012800000F068FF002398460025002085E03369C0
:10129000002B00D1AAE04B451CD1089A099B08926B
:1012A0009C4606980799121A8B419C4503D805D194
:1012B0000899914202D901225242D3170021049188
:1012C0000131039102944146019100953000FFF7EE
:1012D000D1FE2CE0824B7F4A93217C4800F03AFFFC
:1012E000069A079B002B02D1002A00D082E03368C7
:1012F000002C00D1BBE05A7B944200D0A0E0012238
:10130000002A00D0B3E0DA7B002A00D0B5E0DC731D
:10131000002C00D1C4E033681B7B9C4200D9BFE0A5
:10132000013CF3689C466444237801332370002316
:1013300033617268BFF35F8F136087F3108800F02A
:101340003DFB00230024089309947268EFF3108991
:1013500072B61368002BFCD0BFF35F8F35686C7BCF
:10136000002C8FD000D152E72B7B9C4200D94EE756
:101370005C4BE7183F01B3689C4667443A687B685A
:10138000121A8B41002B00DC47E73A687B680B9808
:1013900000F07CFB0023984600257368BFF35F8F45
:1013A00000221A6089F31088002D00D17EE0D0233E
:1013B0001B06802292035A618021090399619A6178
:1013C00053461B022343994641461800A8470690FE
:1013D00007917268EFF3108772B61368002BFCD088
:1013E000BFF35F8F079B002B00DA50E7079B002BB2
:1013F00000DC75E73369002B00D178E74B4519D144
:1014000000F0DCFA069A079B12184B41994202D869
:1014100004D1904202D901225242D31700210491F3
:101420000131039102944146019100953000FFF78C
:1014300021FE7CE72A4B274A9621244800F08AFEA9
:10144000002C0ED01A7B94420BD862001219033A7A
:1014500019688C4662449278002A00D150E7012234
:101460004EE7214B214A4D21214800F073FE214BCC
:10147000214A8F211E4800F06DFE002A0AD0197BF8
:101480008A4207D851008A18033A19688C46624488
:1014900054703CE7144B154A4D21154800F05AFE94
:1014A000084B0E4A4421094800F054FE002800D0A1
:1014B00045E70CB01CBC90469946A246F0BDC0461C
:1014C000901600205C7F0010207E0010807F0010AE
:1014D000B47E0010587E0010CC7E00102C7E0010D0
:1014E000D87E0010FFFFFF0FD87F0010C87D0010CE
:1014F000F47F0010147F0010F47D001010B5054B30
:101500001868002800D010BD034B044A3921044854
:1015100000F020FED40F0020C47F0010087E0010D1
:10152000807F001070B505000E0000F03BFA280027
:1015300000F014FB1249280000F060FA182003F0B4
:10154000B1FA0400FFF7BCFC0E4B9C4660448000DF
:10155000606022000C49300000F0FEFB206010218A
:10156000300003F0A3FAA0600121300003F09EFADE
:10157000E0602575AD00054BEC50200070BDC04605
:10158000F911001040000034190F001090160020CF
:1015900010B5064B1B68002B00D010BD1021032096
:1015A000FFF7C0FF014B1860F7E7C046D40F0020DB
:1015B000F0B5C64600B58AB0060006920793109FA4
:1015C00012AB1B7898461F2302AA9446634400225C
:1015D0001A7016E0002B07D03168097B8B4203D8C4
:1015E000591EF068405C2AE0384B394A442139489A
:1015F00000F0B0FD002036E001246442E5170694B7
:1016000007957268EFF3108472B61368002BFCD054
:10161000BFF35F8F1F2302AA944663440493002301
:1016200003930293119B01930097069A079B300046
:10163000FFF720FD0200C3B2002BCBD10020716860
:10164000BFF35F8F00250D6084F31088002B37D027
:101650001F2302A98C4663441B78002BCAD10102C8
:10166000FF2010400843002B2CD04346002B29D0EC
:101670001199B84704000D0003000B431ED0002948
:101680000DDA0698079902000B00001BA94104001F
:101690000D008B42B0D8B2D18242B0D9ACE700F095
:1016A0008DF924184D41A94202D804D1A04202D993
:1016B00001246442E51706940795A2E7002001E0A3
:1016C000012040420AB004BC9046F0BD5C7F00108F
:1016D0002C7E0010807F001070B504004268EFF38C
:1016E000108572B61368002BFCD0BFF35F8FCAB2AF
:1016F0002668737B9A421BD10120002848D02369B9
:101700008B422DD0090AC9B2002A2FD023681B7B37
:101710009A422BD8531EE068C35C8B422CD0002029
:101720006368BFF35F8F00221A6085F3108870BD75
:10173000002A0DD0337B9A420AD853009B18033BF2
:101740003068844663449B78002B07D10020D4E79F
:10175000124B134A4D21134800F0FCFC0120CCE74A
:10176000114B124AE821124800F0F4FC114B124AC6
:1017700044210F4800F0EEFC1100300000F0E6FBC1
:101780000028CDD10D4B094AEF21094800F0E2FCB9
:1017900023698B42C4D100232361C1E7D87F0010A5
:1017A000C87D0010F47F0010347F0010747E00109C
:1017B000807F00105C7F00102C7E0010587F00108E
:1017C000F0B587B006000F0006246442E517A4199F
:1017D0007D418D4202D803D1844201D900240025E5
:1017E0000494059500F0EAF8241A8D41002D12DDCD
:1017F000FFF784FE002302930193144B0093049A95
:10180000059BFFF7D5FE002810DA3000390000F004
:10181000E1F807B0F0BD002DF7D1002CE8D1F4E7D6
:10182000002300E00023002BEFD120BF0499059A8C
:10183000074B5B6A9A42F5D80548806A884203D212
:101840009A42EDD00123EEE70123ECE7110F0010DF
:101850000040054070B504000D0000F0AFF8020034
:101860000B0020002900801859418B4205D9012026
:101870004042C117FFF7A4FF70BD8B42FAD18242EC
:10188000F5D8F7E710B5FA2292000023002102F004
:10189000B3FFFFF7DFFF10BD70B584B005000C008B
:1018A000FFF72CFE002302930193194B00932A00AB
:1018B0002300FFF77DFE061E12DC164B5B6A9C427E
:1018C00009D8144A926AAA4208D29C4201D0012047
:1018D00002E0002000E0002004B070BD0120FBE722
:1018E00020BFFFF70BFE3100FFF7F6FE094B5B6AE6
:1018F0009C4209D8074A926AAA4207D29C4201D068
:101900000120E9E70020E7E70020E5E70120E3E721
:10191000110F00100040054070B5EFF305833F2024
:1019200018401038EFF3108472B6194B1B68002B67
:10193000FBD0BFF35F8F012319008140154A51632B
:10194000154A12781500C5402B4214D0114B5D6A20
:101950008300124E9B599D4206D38300104D5B5964
:101960008A430D490A7007E00A4A031D9B009958F3
:101970009950002300E00023BFF35F8F044A002149
:10198000116084F31088002B00D0984770BDC046CA
:10199000280100D000400540BD160020A8160020F8
:1019A000980F002010B50100024A0348FFF734FAEF
:1019B00010BDC04688800010BB160020044B596A39
:1019C00000E01900024B986A5B6A9942F9D17047AE
:1019D00000400540084B5B6A01E0074B5B6A8B42A5
:1019E000FBD301E0044B5B6A8B4203D1024B9B6A41
:1019F0008342F7D37047C0460040054070B50400ED
:101A00000D00EFF3108672B61B4B1B68002BFBD04A
:101A1000BFF35F8F002D1CD0200000F0D9FD174BC5
:101A200098420BD01900200000F0DAFD01212000BF
:101A300000F0BEFD0123A340114A1360A400114B26
:101A4000E550BFF35F8F0C4B00221A6086F31088BD
:101A500070BDA2000B4B0021D1500122A2400A49C7
:101A60000B7893430B700549200000F0E3FD002143
:101A7000200000F09DFDE4E7280100D019190010B6
:101A800038600540980F0020BD160020F0B5DE46F6
:101A900000B584B00600140001921D000293FFF708
:101AA0008DFF03948D422BD9EFF3108B72B6244B2C
:101AB0001B68002BFBD0BFF35F8F0124B440214A89
:101AC0005463E7B220490B783B430B70331D9B00F6
:101AD00001999950B3001D4902985850136A234246
:101AE0001AD1136C234211D00020BFF35F8F144B27
:101AF00000221A608BF3108804B004BC9346F0BD3A
:101B00008D4201D18442CFD80120F5E7104B114A14
:101B1000B221114800F01EFBFFF750FF8D420CD898
:101B200002D1039B834208D8064B1C625C63064AC1
:101B30001378BB4313700120D7E70020D5E7C046D8
:101B4000280100D000400540BD160020A816002046
:101B5000AC8000106C800010D080001010B5EFF346
:101B6000108472B60A4B1B68002BFBD0BFF35F8F4B
:101B700001238340074A136207490A789A430A708F
:101B8000BFF35F8F024B00221A6084F3108810BDF0
:101B9000280100D000400540BD16002010B51F29C7
:101BA00005D8064B9C4661448900016010BD044B7A
:101BB000044A0A21044800F0CDFAC046400000342F
:101BC0001C810010108100104881001010B5040025
:101BD000FFF776F901002000FFF7E0FFBFF35F8F0A
:101BE00010BD10B5FFF7DAFFBFF35F8F10BD10B562
:101BF00004000120FFF772F901002000FFF7F1FF58
:101C000010BD000010B500291FD0037B99421CD8DD
:101C10004B005B18033B0468A446634400291AD0B8
:101C2000002A1ED0914222D0002A26D0047BA24254
:101C300023D8046850008018033820188170197860
:101C4000002920D041701A7010BD104B104A4D2150
:101C5000104800F07FFA104B104A53310D4800F045
:101C600079FA0F4B0D4A54210A4800F073FA0D4BD4
:101C70000A4A5521074800F06DFA044B044A4D21E9
:101C8000044800F067FA1A70DEE7C046D87F0010FB
:101C900010820010F47F00103C8000101C820010A5
:101CA000488000105480001070B506000D0014002C
:101CB00000290BD0002A12D080687368984700284A
:101CC00006D12A0021003000FFF79CFF200070BDE4
:101CD000220029003000FFF795FF2C00F6E70C00EA
:101CE000F4E7000010B50023437301338373037BD3
:101CF000C3730121037B8B4215D9CBB2002B0CD0CF
:101D0000027B934209D85A00D218033A0468A446C9
:101D10006244013353700131ECE70C4B0C4A4D2106
:101D20000C4800F017FA002B09D09B4207D8016835
:101D30005A00D318033BCB1800225A7010BD034B36
:101D4000034A4D21034800F005FAC046D87F001031
:101D500010820010F47F0010F8B505000F00160087
:101D60001021012002F0A2FE040005734760032148
:101D7000280002F09BFE2060A6602000FFF7B2FF63
:101D80002000F8BD70B50400002901D1080070BD25
:101D9000002934D0037B994231D84B005B18033BB8
:101DA0000268944663445A78002AEFD02DD0037B12
:101DB0009A422AD853009B18033B00688446634428
:101DC0005D7800205870002925D0237B994222D8C5
:101DD0004B005B18033B2068844663440020587026
:101DE0002000FFF761FF060029002000FFF7CAFF6F
:101DF000020031002000FFF757FF0100C6E7094B42
:101E0000094A4D21094800F0A5F9064B064A4D2123
:101E1000064800F09FF9034B034A4D21034800F0A8
:101E200099F9C046D87F001010820010F47F00108E
:101E300070B505000C001600002928D02DD0037BBA
:101E400099422AD84B005B18033B026894466344CE
:101E50005A78002A27D19A78002A2AD11978FFF7D0
:101E600091FF0300002E03D1EA7B002A27D1EC73F7
:101E7000002B37D1002C49D02B7B9C4246D82A68B6
:101E800063001C19033C14190023637070BD224BBE
:101E9000224A3321224800F05DF9224B224A4D218B
:101EA000224800F057F9224B1C4A35211C4800F00B
:101EB00051F9204B194A3621194800F04BF9002AF4
:101EC0000AD0297B8A4207D851008A18033A296828
:101ED0008C4662445470CAE7124B134A4D21134892
:101EE00000F038F9002B0BD02A7B934208D843002E
:101EF0001B18033B2A689446634400229A70B9E792
:101F0000084B094A4D21094800F024F9054B064ABF
:101F10004D21064800F01EF9788200103082001032
:101F200080820010D87F001010820010F47F001013
:101F3000B4820010DC82001070B504000A00457BFA
:101F40002900FFF775FF6073280070BD10B504000D
:101F5000002966D0437B8B420ED0002911D0037B31
:101F600099420ED84B005B18033B0268D018837867
:101F7000002B0CD1002055E00021FFF7DDFF0120F0
:101F800050E0294B294A4D21294800F0E3F8002B65
:101F90001FD0227B93421CD85A00D318033B2268DF
:101FA000D21813788B421AD0002B1BD0227B93427D
:101FB00018D85A00D318033B2268D21853788B42A2
:101FC00016D0002BF0D11B4B1B4A63211B4800F09D
:101FD000C1F8154B154A4D21154800F0BBF8437860
:101FE000137007E0104B114A4D21114800F0B2F870
:101FF0004378537000238370437000222000FFF762
:1020000017FF0200617B814205D02000FFF74CFEE4
:102010006073012006E00A4B074A6921074800F077
:1020200099F8002010BDC046D87F00101082001023
:10203000F47F001050820010448200108082001053
:102040005882001070B5234B234A1A60234B244A50
:102050001A60244B9A68224B9343FAD1224C01E038
:1020600008CC9847214B9C42FAD300F01FF91B4B38
:102070001F4A1A601B4B9B68DB43DB01FAD11D4BE7
:1020800040229A675A671A67DA661B4C03E0200001
:10209000FFF79CFD0834194B9C42F8D3184CA168FB
:1020A000184DC022280002F013FDA560EFF3038352
:1020B000FF221A4200D000BEFEF7F2FE00F026FC1E
:1020C000FFF766FA104C01E008CC98470F4B9C4292
:1020D000FAD370BD00E00040BFCDFFFF00F000402C
:1020E000FE7F3C0000C00040B80B0020C80B002061
:1020F000FFFFFF0100F00140B00B0020B80B0020F3
:1021000000ED00E000000020C80B0020CC0B0020F8
:1021100000BEFDE703000A4A1268002A08D0084AF8
:102120001068C318074A934206D2054A13607047E5
:10213000034A05491160F2E701204042F7E7C04633
:1021400008100020000004208819002010B5FFF7B7
:10215000DFFF000010B582B00C001900002A0CD07F
:10216000084B002A0BD0019200932300020006487E
:1021700002F0DCFD0120FFF7CBFF044BF1E7034A3F
:10218000F1E7C04600830010108300100C8300109C
:102190000FB400B583B0084802F098FD049B002BF3
:1021A00007D005A90191180002F09EFD034802F036
:1021B0008DFD0120FFF7ACFF40830010508300101D
:1021C000F8B5D646474680B5060088461700089AF7
:1021D000934242D3190E1802089A002301F0B4FC6E
:1021E000050073009B199C002B4B9C46644463685C
:1021F000834200D26060331FDBB29A46012B32D992
:10220000C0239B012343802212011A60B300234A9A
:102210009958002905D0506901F050FC013001386F
:10222000FDD17F0123685F40E0231F4080235B01D5
:1022300023431F605246012A21D980239B01234357
:10224000802212011A606560B600144B089AF250A1
:1022500001200CBC90469A46F8BD114B114A2E2124
:102260001148FFF777FF4346012BC9D1C0239B01DB
:10227000234303221A60A368DB07FCD5D1E721685A
:102280004246514003220A401A60A2680123414697
:102290008B401342F9D0D0E700800040AC0F002003
:1022A00064830010548300107883001030B583B02D
:1022B0000C2000F08DF8FEF721FE00280DD0002341
:1022C00004E09900334A344888500133092BF8D987
:1022D000304B324A5A6203B030BD314B00229A670C
:1022E00000F07EF82F4B01221A602D4B5B6C012B06
:1022F000FBD12D4B03221A60294B9B6B012BFBD189
:10230000C0239B01294A1360294A1360294B9A680C
:10231000C0239B019343F9D1022400940633264A3B
:102320000121264800F070F800940523244A012179
:10233000244800F069F8244B009300220221042075
:10234000FFF73EFF214D00952B00002201210520C3
:10235000FFF736FF104C00942300002200210720D5
:10236000FFF72EFF00942300002200210820FFF732
:1023700027FF0A4B00932300002200210920FFF7CA
:102380001FFF00952B00002200210620FFF718FFF9
:10239000A1E7C046AC0F0020006CDC021BB70000B8
:1023A000008000403CB0004030B0004000E0004001
:1023B00000F0004000C00040002F6859008002403B
:1023C00000389C1C00C00240001BB7004059730736
:1023D00080239B001843014BD86270470080054062
:1023E000064BAA2212011A602F22DA60044B054A1A
:1023F0001A60024B5B68002BFBDA7047004002401A
:102400000060024000B0FA00F0B5CE4600B582B0E0
:10241000040015001E0008AB1F7801235B424360D7
:102420000023836001910C2001F048FB8146019953
:1024300021604201121A93019B1ADB004B4499015F
:10244000280001F03BFB0200103A98235B009A42FF
:102450001FD8731E062B22D87B1EDBB2062B1ED87C
:10246000B74222D82D094D4525D3A060231DC02297
:1024700092011A43212313602368002BFCDA3604EF
:102480003B031E43E6600823136002B004BC914680
:10249000F0BD0C4B0C4A1A210C48FFF75BFE0C4BAD
:1024A000094A1D210948FFF755FE0A4B064A232118
:1024B0000648FFF74FFE084B034A27210348FFF762
:1024C00049FEC046C4830010B8830010E0830010AA
:1024D0001C8400106884001080840010074B9B68E7
:1024E000103080001950BFF35F8FBFF35F8F044B34
:1024F0000021196082F310887047C04600ED00E0AB
:10250000240100D010B5091A04394808090B05D177
:102510004005400D044B184380B210BD034B044AE4
:102520008D210448FFF716FE00E0FFFF90860010A3
:10253000B8840010A086001010B5091A04394C08A0
:10254000090B08D14905490D064A11430180064B84
:102550002343438010BD054B054A95210548FFF7ED
:10256000F9FDC04600F0FFFF00F8FFFF9086001065
:10257000C4840010A086001001238340034A106821
:102580001840431E9841C0B27047C04600E100E0C9
:10259000002902D1034B18607047034B1860034BAE
:1025A0001860F9E780E100E080E200E000E100E08F
:1025B00010B5012383401800FFF7EAFF10BD0000AB
:1025C00001238340014A13607047C04600E200E0E7
:1025D000024B9B6810308000C058704700ED00E04F
:1025E00070B504000D00EFF3108672B60C4B1B683B
:1025F000002BFBD0BFF35F8F2000FFF7E9FF094BF3
:10260000984201D0A84205D1320029002000FFF7EE
:1026100065FF70BD044B054A71210548FFF79AFD1F
:10262000240100D0CD020010588600109C840010B8
:10263000A0860010F0B5CE4600B584B001900D0024
:10264000EFF3108672B65C4B1B68002BFBD0BFF318
:102650005F8F5A4B9A68019C1034A300D758584B8F
:102660009F4200D1A4E0AF4200D1A3E00297554BB6
:10267000FB1A2F2B08D9320039000198FFF72EFFE3
:1026800004B004BC9146F0BD0198FFF775FF0390BC
:1026900000210198FFF78CFFBFF35F8FFDF77BFDF3
:1026A000002801D084421FD10123029C9C43454A4B
:1026B000A21A921093009B1819015B1819025B185B
:1026C00019045B185B009C4694440023A168A9424E
:1026D00012D00622A256002A0DDB53009B189A0046
:1026E0002300384CA418F1E78E21374B374A4900B4
:1026F0003748FFF72FFD2300A94252D10622A256E8
:102700009146002A38DB52004A4491002D4B5B1859
:102710009A68A260DA79E27106229A56A2719B79D0
:102720005BB2002B12DABD200002A0804B465B009A
:102730004B449A00234B9B18264A117899714B46BB
:10274000137003990198FFF733FF94E7201D1D4A8A
:102750008B181A1D9B88D90A1C2907D159054915C0
:10276000023149005118FFF7CDFEDEE71A4B1B4A34
:102770009B211748FFF7EEFC00280DD1002B09D054
:10278000FF229A71164A9A80124B1A78A2716246F9
:102790001A70D6E70A4FF7E7201D1249FFF7CCFE63
:1027A000CFE75221104B094AFF310948FFF7D2FC0D
:1027B000034F60E7024F5EE7240100D000ED00E028
:1027C000CD020010BC0200202C860010EC8400100A
:1027D000A0860010BC160020E0850010DC840010EC
:1027E00000BDFFFFF60200205086001010B5032345
:1027F00004009C43064A9446644422681840C00082
:10280000FC3383409A4381401143216010BDC04690
:1028100000E400E0F8B5050001240443304BE31A5E
:102820002F2B2DD8FDF7B7FC002830D0EFF3108602
:1028300072B62C4B1B68002BFBD0BFF35F8F28496F
:10284000691A89108A0052181301D2181302D2187B
:102850001304D3185B005B18234A92688000125857
:10286000A2421BD00022032A32D8510089188800C6
:102870001B490918897949B299421FD00132F2E700
:10288000B7211A4B1A4A49001A48FFF763FC722114
:10289000194B174AFF311748FFF75CFC124A926840
:1028A00016491150164A1178A9711370BFF35F8F42
:1028B0000C4B00221A6086F31088F8BD08485100BE
:1028C0008F18BC000419FF27A7710E4AA280E9E700
:1028D000C1210D4B064A49000648FFF73BFCC046A4
:1028E000BC020020240100D000ED00E0F8850010BB
:1028F00000850010A086001020860010CD02001078
:10290000BC16002000BDFFFF5082001010B500244F
:1029100004E080212000FFF769FF01341F2CF8D963
:1029200010BD704710B5002802D00B684968984761
:1029300010BD002307E09A00D3185A004B1C036017
:102940000B789B18303B01680A78303AD2B2092ADA
:10295000F1D918007047F0B5D6464F464646C0B587
:1029600082B005000091904601930A9B99460B9C0A
:102970000C9E0D9B9B0712D04E460C9B994618E06F
:10298000541C019B00992020A84701372200B74220
:10299000F6D354460C964E460C9B994609E0270008
:1029A000A246F4E7013C571C305D019B0099A84703
:1029B0003A00002CF6D14E460D9B9B070AD54746A0
:1029C00005E0541C019B00992020A8472200D31B3E
:1029D000B342F6D3100002B01CBC90469946A24602
:1029E000F0BDF0B5CE46474680B587B0049205935A
:1029F0000E9E0F9C10AD2B789946129F139B149D31
:102A0000AA071CD4002B0CD0EA070AD54A46002A94
:102A100002D10C322A4204D0013B02E0302232556E
:102A20000134BC4205D21F2CF8D902E030223255C5
:102A30000134EA0703D59C4201D21F2CF6D9EA06DD
:102A400015D56A0505D4002C03D0BC421CD09C428D
:102A50001AD0119A102A23D0119A102A28D0119A2C
:102A6000022A2DD01F2C02D83027375501341F2CB5
:102A70002FD84A46002A29D16A0737D42A0728D5F1
:102A800020273755013424E0671E002F06D0119A05
:102A9000102A01D03C00DCE7023CDAE73C00D8E732
:102AA000AA06D9D41F2CD7D8782737550134D9E7AF
:102AB000AA06D4D51F2CD2D8582737550134D1E7D0
:102AC0001F2CCFD8622737550134CBE72D27375538
:102AD00001340395029301940096059B049AFFF735
:102AE0003AFF07B00CBC90469946F0BD2B273755EE
:102AF0000134EEE7F0B5C64600B594B008900991F0
:102B00000A920B931AAB10CB1B7898461F9D002C92
:102B100001D110239D438027FF002F4016D0002CA9
:102B200020D0002712E0AA061AD54121C918C9B23F
:102B30000A39C9B27E1C0CABD9551C99200000F093
:102B4000BDFF041E0FD01F2E0DD837001C9920008A
:102B500000F0B4FFCBB2092BE5D83033D9B2E9E7A6
:102B60006121E3E7002606951E9B05931D9B0493B8
:102B70001C9B03934346029301960CAB00930B9B63
:102B80000A9A09990898FFF72CFF14B004BC9046E4
:102B9000F0BDF0B5D6464F4680B599B00C900D917A
:102BA0000E920F93209C219D22AB1B789A46249B6A
:102BB0000A93259B0B93289B994623002B4303D113
:102BC00010334A469A4391468026F6004B461E40F3
:102BD00007D023002B4331D0002637004E460994FE
:102BE0001BE037004E46099417E0B20621D541227A
:102BF000D218D2B20A3AD2B27C1C10ABDA550A9A79
:102C00000B9B0998290000F09FFF09900D000B0015
:102C1000034315D01F2C0ED827000A9A0B9B099846
:102C2000290000F091FFD3B2092BDED83033DAB29D
:102C3000E2E76122DCE72700B14603E0002701E07C
:102C40002700B1464B460693279B0593269B04938A
:102C50000A9B039353460293019710AB00930F9B7B
:102C60000E9A0D990C98FFF7BCFE19B00CBC91465A
:102C70009A46F0BDF0B5D6464F4680B595B008905F
:102C80000691099207931C9C1D9E22003300200090
:102C9000310001F0D0F9002800D06EE1012252424B
:102CA000D44B2000310001F0C1F9002800D064E1CC
:102CB00001225242D04B2000310001F0A1F900283E
:102CC00000D05AE1002200232000310001F098F9E1
:102CD000002800D066E10B940A968023DB00209A3E
:102CE0001A409146131E01D106331E930B9B0A9A7C
:102CF000100D4005400DC1498C4660441203150B70
:102D00000C93BF4B2B430D9301F0A8F9BD4ABE4B6A
:102D100001F034F9BD4ABE4B01F01EF90E900F913F
:102D20000022BC4B0C980D9901F00DF9BA4ABB4B2F
:102D300001F024F902000B000E980F9901F00CF934
:102D400001F0A4F9050001F089F9B54AB54B0C90E2
:102D50000D9101F013F90022B34B01F0FDF801F0E1
:102D600095F90700B14AB24B0C980D9901F006F99C
:102D70000C900D91380001F071F9AE4AAE4B01F0A4
:102D8000FDF802000B000C980D9901F0DCF8020030
:102D90000B000E900F9101F0F1F810901191A74BDC
:102DA0009C4667443B050D9300230C930E980F99A6
:102DB00002000B0001F0D0F8129013910E9A0F9BB5
:102DC00000208021C90501F0BEF80E900F9100226D
:102DD0009B4B1098119901F0C8F80022994B01F013
:102DE000BBF802000B001098119901F0BEF8002208
:102DF000954B01F0B1F802000B001098119901F009
:102E0000B4F802000B000E980F9901F0A5F802002B
:102E10000B001298139901F0A8F80022784B01F0EA
:102E20009BF80C9A0D9B01F0A9F80C900D910A00EB
:102E300001000E910F920B9A0A9B0C980D9901F0CC
:102E4000F5F8002808D0013D00227E4B0C980D9922
:102E500001F08BF80E900F912B006333C62B00D935
:102E6000A8E00427209B1B051FD5784A784B0B98B8
:102E70000A9901F0D3F8002800D1A0E00022754B98
:102E80000B980A9901F0BCF8002800D197E01E9B2E
:102E9000AB4200DC90E05D1B6B1E1E938023DB00C9
:102EA000209A1A432092002700251F9B9F4200D39F
:102EB00091E0DB1B9A460223209A1A40914603D0E8
:102EC000002F01D000239A46002D07D00E9A0F9BA9
:102ED0000B980A9901F049F80B900A9100220023FF
:102EE0002000310001F08CF8002800D076E05A4B29
:102EF000209A13400493534603931E9B02930B9A0C
:102F00000A9B00920193079B099A0699089800F082
:102F1000A5F8002F41D0209B9B0666D545231C00B9
:102F2000431C9A46079B020006992000089CA04774
:102F3000E8172A184240EB0F013F0521059104973D
:102F4000002103910A31029101930092079B52469E
:102F500006992000FFF7CEFD4B46002B1DD0020046
:102F6000089D099C131B1F998B4241D2561C079B3D
:102F700006992020A8473200F4E7209B04931F9B6A
:102F800003931E9B02932200330000920193079B40
:102F9000099A0699089800F061F815B00CBC9146A2
:102FA0009A46F0BD0B9480231B069C46B4446346AE
:102FB0000A9392E6052755E700231E936EE71E9BB2
:102FC000002B00D171E74B46002B00D16DE71E9B13
:102FD000013B1E9369E700239A466CE70A9980201B
:102FE0000006844661440A9181E765231C0097E747
:102FF0001000D2E7FFFFEF7FFFFFEFFF01FCFFFFB5
:103000000000F03FFB799F501344D33FB3C8608B5F
:10301000288AC63F0000F83F61436F63A787D23F0D
:1030200071A379094F930A400000E03F1655B5BBE4
:10303000B16B0240EF39FAFE422EE63FFF0300007B
:1030400000002C4000002440000018402D431CEBE1
:10305000E2361A3F80842E41FFF7FFFFF0B5D646D7
:10306000474680B597B00690079108920993209F34
:103070001E9A1F9B1000190000F0DDFF00282AD1C6
:1030800001225242BB4B1E981F9900F0B9FF002845
:1030900030D101225242B84B1E981F9900F0C6FF52
:1030A00000283AD00423229A134032D0B34A002B8E
:1030B00031D1032322990391219902910193009226
:1030C000099B089A07990698FFF745FC17B00CBCB6
:1030D00090469A46F0BD229B0393219B02930323C3
:1030E0000193A74B0093099B089A07990698FFF74D
:1030F00032FCEBE7229B0393219B02930423019371
:10310000A04B0093099B089A07990698FFF723FCA8
:10311000DCE79D4ACBE70423CCE700229B4B1E98BB
:103120001F9900F083FF002817D10022984B1E98AA
:103130001F9900F065FF00280FD1002200231E9880
:103140001F9900F05DFF002817D100239A46229BAB
:103150005B0500D47DE000261FE0229B0493219BA9
:10316000039302971E9B1F9C00930194099B089A4E
:1031700007990698FFF77EFDA8E71E9A1F9B00207F
:10318000002100F0E0FE1E901F9101239A46DEE729
:103190000EAB30229A55013F01361F2E01D8092F60
:1031A000F6D81E981F9900F071FF040000F056FF3A
:1031B00002000B001E981F9900F0C5FEFA00754B27
:1031C0009B181A685B680C920D9300F0D7FE0A906A
:1031D0000B9100F07FFF050000F03CFF02000B00A8
:1031E0000A980B9900F0AFFE0A900B9100226A4BEF
:1031F00000F01CFF00282ED00135280000F02AFF27
:1032000002000B000C980D9900F000FF002801D07F
:1032100001340025002F2CD1200000F01FFF0200F8
:103220000B001E981F9900F08EFE00225A4B0A9048
:103230000B9100F0E5FE002841D10022564B0A9880
:103240000B9900F0F3FE002839D1E30737D501349C
:1032500035E006277FE700224F4B0A980B9900F0D4
:10326000CFFE0028D6D1002D01D0EB07D2D50135F5
:10327000D0E70A941F2E10D8013F0A21280000F041
:103280001DFC741C30310EAB99550A21280000F04A
:1032900015FC051E25D02600ECE70A9C04E00EAACA
:1032A000302191551F0001361F2E02D87B1E002FA2
:1032B000F5D11F2E03D80EAB2E229A5501361F2EA4
:1032C00014D80A21200000F0CDFB751C30310EAB64
:1032D00099550A21200000F0C5FB041E05D02E00E0
:1032E000EDE7A0460A9C4646DEE72E000323229A1D
:1032F0001340012B16D01F2E06D85346002B28D082
:103300000EAB2D229A550136229B0393219B0293EB
:1033100001960EAB0093099B089A07990698FFF750
:103320001AFBD3E6219B002B0DD05346002B02D174
:103330000C33134207D0219B013B219303E00EABDA
:1033400030229A550136219B9E42D4D21F2EF6D9A7
:10335000D1E7229B5B0704D50EAB2B229A55013691
:10336000D2E7229B1B07CFD50EAB20229A55013600
:10337000CAE7C046FFFFEFFFFFFFEF7FBC880010EA
:10338000C8880010CC880010C488001065CDCD41DD
:1033900065CDCDC1D88800100000E03FF0B5DE4615
:1033A00057464E464546E0B595B006000B911500D0
:1033B0001393002900D1FCE20027139B1878002802
:1033C00000D1F8E2252809D07C1C2B003A000B998B
:1033D000B047139B013313932700EEE70133139398
:1033E00000241DE00B00303BDBB2092B37D92A2922
:1033F0003AD000239A46139B1A782E2A44D00023F1
:103400000C93139A1378683BD9B2122900D980E043
:103410008B00D049CB589F4601231C4301321392A5
:10342000139A11780B00203BD8B21028DAD8830009
:10343000C948C3589F4602231C4301321392EFE749
:1034400004231C4301321392EAE708231C43013290
:103450001392E5E710231C4301321392E0E713A80F
:10346000FFF767FA8246C6E71E9B1A1D1E921B686D
:10347000002B04DB9A46139B01331393BBE7022214
:1034800014435B429A46F6E78022D20014435A1C4A
:1034900013925A781300303BDBB2092B04D92A2A45
:1034A00007D000230C93ACE713A8FFF742FA0C9067
:1034B000A7E71E9B1A1D1E921B68002B04DB0C93B2
:1034C000139B013313939CE70023F8E780235B00F1
:1034D0002343511C139152786C2A01D01C0018E030
:1034E000C0239B001C430131139112E0802323432E
:1034F000511C13915278682A01D01C0009E0C023A6
:103500001C430131139104E080235B001C43013212
:103510001392139B18780300253BDAB2532A00D983
:103520003DE293008D4AD3589F4680239B001C4365
:1035300001321392EDE780235B001C4301321392AA
:10354000E7E778280AD058283BD06F283CD062287B
:103550003DD010239C43063B9C4601E010239C4633
:10356000582837D0692803D0642801D00C2294430E
:10357000630501D50122944369282ED064282CD0FC
:10358000A30500D5A5E0E30500D5BFE0630600D4A0
:10359000D2E01E9A111D1E911168FF220A40059467
:1035A000534604930C9B03936346029300230193B9
:1035B00000922B003A000B993000FFF79BFA0700AE
:1035C0002BE010239C46CBE708239C46C8E7022348
:1035D0009C46C5E720221443C4E7A30521D4E30594
:1035E00051D4630668D51E9A111D1E911168FF22E1
:1035F0000A40D317D1185940D20F0594534604936B
:103600000C9B039363460293019200912B003A00B6
:103610000B993000FFF76EFA0700139B01331393E9
:10362000CBE61E9BDA1D07218A43110008311E914B
:10363000116853689846DB1710931193109A119BE9
:10364000100048400E901900404641400F910E98DE
:103650000F99801A99410E900F914346DA0F089402
:10366000534607930C9B06936346049300230593EC
:103670000292009001912B003A000B993000FFF765
:1036800088FA0700C9E71E9A111D1E911268D31708
:10369000D1185940D20F0594534604930C9B0393C1
:1036A00063460293019200912B003A000B9930007F
:1036B000FFF720FA0700B0E7230605D51E9A111D73
:1036C0001E910023D25E94E71E9A111D1E9112686E
:1036D0008FE71E9BDA1D07218A43110008311E91D6
:1036E000536812680092019300220894534607938E
:1036F0000C9B069363460493059202922B003A00BA
:103700000B993000FFF745FA070086E71E9A111D56
:103710001E91136800930594534604930C9B0393E6
:1037200063460293002301932B003A000B9930006B
:10373000FFF7E0F9070070E7230606D51E9A111D72
:103740001E9112681204120C29E71E9A111D1E9177
:10375000126824E7DC860010288700106C870010B0
:1037600046281AD01E9B0733072293431A000832BB
:103770001E921A685B680092019304945346039367
:103780000C9B02932B003A000B993000FFF766FC6C
:103790000700139B013313930FE620231C43E1E73B
:1037A000672801D0472802D180231B011C434528EC
:1037B00001D0472801D120231C431E9B0733072239
:1037C00093431A0008321E921A685B6800920193B4
:1037D0000494534603930C9B02932B003A000B99DD
:1037E0003000FFF747FA0700139B01331393E4E51A
:1037F00002232340994622D0012398461E9B1A1D7E
:103800001E927C1C18782B003A000B99B0474B464F
:10381000002B1AD1139B013313932700CDE5571CBE
:103820000C9B0B992020A84723003A005C1C9E4269
:10383000F5D8B2461700A0462E000C9DDEE7012306
:103840003A000C9535005646F0E7220043460C95A9
:103850003500564606E0571C0C9B0B992020A847C4
:1038600023003A005C1C9E42F5D814002E000C9DEB
:10387000D0E71E9B1A1D1E921B689B460C9B002BBB
:1038800021D1012252425B4601E001330A0019783E
:10389000002902D0511E002AF7D15A469B1A984699
:1038A0008023DB002340994603D00C9B984500D928
:1038B000984602232340129307D03A005C46370013
:1038C0004E460D951FE00C9ADDE73A00434637005F
:1038D00056460D9506E0551C0D9B0B992020B847C8
:1038E00023002A005C1C9E42F5D8B2463E00A0464A
:1038F0005C4637004E4606E00C930134551C0D9B88
:103900000B99B8472A002078002805D0002EF4D063
:103910000C994B1E0029EFD13E0017000D9D129B04
:10392000002B03D1139B0133139346E543460C95BB
:103930003500564606E0571C0C9B0B992020A847E3
:1039400023003A005C1C9E42F5D817002E000C9D07
:10395000E8E7212323431E9A111D1E91126800924D
:103960000593082304930C9B0393102302930023D5
:1039700001932B003A000B993000FFF7BBF80700CA
:10398000139B0133139318E57C1C2B003A000B9911
:103990002520B047139B0133139327000DE57C1CB2
:1039A0002B003A000B99B047139B01331393270068
:1039B00003E5094E00E5AF420CD36A1E2B000B99BC
:1039C0000020B047380015B03CBC90469946A2464E
:1039D000AB46F0BD3A00F1E72329001000B585B0F1
:1039E000029003910121009313004A4202A9024868
:1039F000FFF7D4FC05B000BD2529001001480421C3
:103A0000014B1847100300202D3A001010B501009B
:103A100018231B8814221088984710BD10B5010088
:103A200018231B8816221088984710BDF0B5C6468B
:103A300000B507000E0000250123984600E001357F
:103A4000B5420AD2AC003C192068FFF7DFFF2060C6
:103A50000028F4D100239846F1E7404604BC904684
:103A6000F0BD0000144A936F9B0815D29066D16692
:103A7000002905D0FFE7FFE7FFE7516F106F7047A0
:103A800004B580210906C2175140002800D0C84360
:103A900004F012F9002104BD936F5B08FDD3F0B56B
:103AA000946ED56E576F166FFFF7E0FF9466D5667C
:103AB00057671667F0BD0000000000D0134A936FEF
:103AC0009B0813D210665166002905D0FFE7FFE777
:103AD000FFE7516F106F704704B5002801D0002038
:103AE000C04304F0E9F8002104BDC046936F5B08B1
:103AF000FDD3F0B5946ED56E576F166FFFF7E2FFEA
:103B00009466D56657671667F0BD0000000000D0C8
:103B100094464E4A926F9208624601D230E0C04607
:103B2000F0B54A4EB56F6D08FCD3346E756E776F85
:103B3000366F00F025F89446444A14665566576778
:103B400016676246F0BDC0469446404A926F92089E
:103B5000624601D258E0C046F0B53C4EB56F6D08E4
:103B6000FCD3346E756E776F366F00F04DF8944667
:103B7000364A14665566576716676246F0BDC046FA
:103B8000002B24DB11D000293EDA00B5C9434042A6
:103B900000D1013100F038F8C943404200D1013171
:103BA000DB43524200D1013300BD002AEBD1002893
:103BB00001D1002905D00020C90FC90701D1C04398
:103BC000410800B504F070F80022002300BD00B5E4
:103BD00000290ADBDB43524200D1013300F014F824
:103BE000C943404200D1013100BDC943404200D128
:103BF0000131DB43524200D1013300F005F8DB43D1
:103C0000524200D1013300BD002923D1002B18D12D
:103C1000002A0CD0BC460D4F38667A66002100237E
:103C2000FFE7FFE7FFE77A6F386F674670470028C6
:103C300001D00748010000B504F036F80022002347
:103C400000BD02000B00002000217047000000D0E2
:103C5000FFFFFFFF002B00D0BDE0130C26D1002A90
:103C6000E7D080B4104F39667A66FFE7FFE730B4DB
:103C7000040C7B6F396F1B0423433B66FFE7FFE7B0
:103C8000FFE7C04684B27B6F3D6F1B0423433B6656
:103C9000FFE7FFE7C04600232C042D0C7A6F386F36
:103CA00000196941B0BC7047000000D0F0B59446DF
:103CB0000025140E01D112020835140F01D1120192
:103CC0000435940F01D192000235D40F01D1520076
:103CD0000135D40B0134254F7C66254C3C660E0C17
:103CE00093B2FFE7FFE7FFE73C6F6643360C7703CD
:103CF000BE467343DF0B5B04C01AB941130C734318
:103D0000DB18C91ACE086643360CB64493B2734327
:103D10001F0F1B01C01AB941130C73431F0B1B0566
:103D2000C01AB941860D8F023E436643360C092DF9
:103D300024DB520A7243801A7703460A6643360C24
:103D400016235B1BDE40DF40BF1964466643821BBF
:103D50007046043506330100D940A840C01900D38D
:103D60000131A24206D20023F0BD0000000000D0C5
:103D7000FFFFFFFF121B0130F3D3F1E709277F1B81
:103D8000FE406446A2B27243801A00D20139220C6E
:103D90007243130C1204821A99410B0070460435C9
:103DA00013370100F940A840801900D30131002BDE
:103DB00002D1A2420AD2F0BD013000D30131121B60
:103DC000FAD2013BF8D1A24200D2F0BD013000D3BB
:103DD0000131121BF7E7F0B51C0C00D080E00CB4E9
:103DE00000251C0A04D11B02160E334312020835AB
:103DF0001C0B04D11B01160F3343120104359C0B1D
:103E000004D19B00960F334392000235DC0B02D1A4
:103E100092185B4101351C00971864410134464FEC
:103E20007C66464C3C660E0CFFE7FFE7FFE7C046AA
:103E30003C6F6643360C7703BE4697B27743C01B90
:103E400000D20139C01B00D201399FB27743C91B90
:103E5000C91B170C77437E04FF0B801BB941CE08AA
:103E60006643360C0C2D33DBB644120B1F053A4368
:103E70001B0B97B27743C01B00D201399FB2774327
:103E8000C91B170C77433E043F0C801BB941860DBC
:103E90008F023E43664329277F1BFE400C3D774639
:103EA000AF40BF1930BCA2B2ABB272437343801AA9
:103EB0009941220C7243130C1204801A994102009A
:103EC0000B000137001BA941F9D2781E0021F0BD7B
:103ED0000C277F1BFE4077467F0BAF40FF19E0E7C2
:103EE00000245D1C07D0144F7D663966FFE7FFE7AD
:103EF000FFE7FFE73C6F95B29EB265436643401B08
:103F0000B141150C1E0C6543664336042F0C3E432D
:103F10002D04401BB141994204D202000B00200045
:103F20000021F0BD01D19042F7D3801A99410134AC
:103F30009942F2D3F6E70000000000D0FFFFFFFF38
:103F400048404140484018B4114B5B68FC4601931F
:103F500008BD04DFF741001018B40D4B1B68FC4688
:103F6000019308BD00DF0142001018B4084BDB6864
:103F7000FC46019308BD0CDFB944001018B4044B93
:103F80009B68FC46019308BD08DF5D4300100000FC
:103F9000C0160020FFB550404240504059404B40B1
:103FA000594000E0FFB5154F4C00640D03D0BC42F2
:103FB00004D10C0314D80020090D09055C00640D20
:103FC00003D0BC4204D11C030AD800221B0D1B05E0
:103FD00001264B4009D44B4003D58B4200D182428D
:103FE000FFBD9942FCD19042FFBD0B43DB18034358
:103FF0001343F5D0C9434918FFBD0000FF07000077
:1040000000B5FFF7CFFF804100BDC04600B5FFF708
:10401000C9FF01D9002000BD012000BD00B5FFF798
:10402000B9FF01D9002000BD012000BD00B5FFF798
:10403000B1FF804100BD012040054A00121804D89C
:104040005A00121801D80020704701207047002044
:10405000704700000021002805D17047C117484073
:10406000401AFAD0C90713B5064B1B6898470CBC19
:10407000441CA2401005120B0349091B09051943F2
:10408000114310BDC01800201F04000010B54C00E3
:10409000620D8023D218DB00D21A5B057E2A10DD68
:1040A0009E3A13DACC170903490819435242D1400A
:1040B000640001341532202A05DAD04008436043F9
:1040C00010BD002010BD0846604310BDC80FC018C9
:1040D000013810BD18B4044B5B6AFC46019308BD5F
:1040E00024DFE54600100000C016002018B4044B81
:1040F000DB6FFC46019308BD7CDF614700100000C8
:10410000C016002070B513231C78012C0FD0012C91
:104110000FDC022C02DC1D4A1D4B9A6470BD990015
:104120001A481B4A885001331F2BF8D9EFE70023A8
:10413000FAE71848FFF772FC05001748FFF76EFC16
:10414000023803789B007F2B19DD8022290010485C
:1041500000F0BEFC022CDCD1104B1A88B5231B02E8
:104160009A4209D10E4B1A880E4B9A4204D10E4B3B
:104170001A880E4B9A42CCD00020FEF709F80C4B5F
:104180000C4A30210C48FDF7E5FFC046BD41001048
:10419000C01600205344000053460000543800006D
:1041A000D8380000494600009C38000059460000FD
:1041B00028890010CC8900108889001007B5604656
:1041C000002800D100BE01880A0A0230DF2AFAD195
:1041D000C9B2820804D3028840880004104300E07A
:1041E0000068024A5050039007BD0000C01600202E
:1041F0000FB403BC0CBCF0B50124E407634000E03D
:10420000F0B50C0DCF0F661E3605891B640503D370
:10421000C943404200D30131640D03D0661CF60A45
:1042200007D0E41B00207F00791C89078912803C9D
:1042300024031D0DDF0F6E1E36059B1B6D0503D37A
:10424000DB43524200D301336D0D03D06E1CF60ADE
:1042500007D0ED1B00227F007B1C9B079B12803D3B
:104260002D032F1B661B58D4A446202E46DA203778
:104270001400BC401D00BD40F24033412A43801869
:104280005941CB0F05D0C943C0430022644250417D
:10429000514162464D0D28D10D0D07D100281FD088
:1042A000241940414941013A0D0DF9D0640006D36B
:1042B000013000D30131002C01D140084000013A07
:1042C0000BD4941CE40A04D112051144DB071944F1
:1042D000F0BDD907204B194300E0D9070020F0BDFD
:1042E0000029DDD1002CDBD1F0BD0132C60740082A
:1042F000CD0728434908002EE1D0D9E73C2E29DA22
:10430000203E40371400BC4000D00124F24014434A
:104310001A00BB401C43D317ACE7AC46202F08DA89
:1043200020360400B4400D00B540F8403941284320
:10433000A5E73C2F0CDA203F40360400B44000D003
:104340000124F84004430800B1400C43C117EAE7D8
:1043500010001900002494E70000F07FF0B50C0D68
:10436000661E3605891BE60A6405640D02D0651CCD
:10437000ED0A04D0002001210905803C2403A44655
:104380001C0D671E3F05DB1BE70A6405640D02D0A8
:10439000651CED0A04D0002201231B05803C240388
:1043A0007740644497B484B296B27443070C7E435A
:1043B000150C6F4380B26843361802D30120000405
:1043C0003F183004350C00197D41844688B29AB2FA
:1043D00050430C0C62431F0C7C438EB27E439219F7
:1043E00002D301263604A4191604170C36186741A7
:1043F00001BC81B29AB25143040C62431B0C5C4372
:1044000080B25843121802D301200004241810046B
:10441000130C401863412D185E410020474106BC33
:1044200088B293B258430C0C6343120C544389B2C4
:1044300051435B1802D301210904641819041A0CB2
:10444000091862416D1856410020474118BCF90215
:10445000720D1143F0026A0D1043ED020A0D03D1F3
:104460006D1940414941013B124E9B1B7600B342FE
:104470000ED26D0007D301300026714166463543E8
:1044800001D1400840001B05C918E4072144F0BDD4
:104490000BDA013306D1013004D101314F0D01D0C7
:1044A0004908F2E7E1070020F0BD013631050020A0
:1044B000EBE70000FF030000F0B51C0D671E3F0591
:1044C000DB1BE70A6405640D02D0661CF60A04D003
:1044D000002201231B05803C2403D0252D06002645
:1044E000F6432E661E096E66CE0FF619B4464900D5
:1044F0004F0D02D07E1CF60A03D000200021403F61
:104500003F033E1BB600B444013F7F05C91B490869
:104510002E6F013676089C02950D25437543ED13E9
:104520007543AD1301356D10F603761B0CB4CC0248
:10453000450D2C43A2B2B3B25A43270C7B43350C32
:104540006F43A4B26C431B1902D3012424043F1906
:104550001C041D0CA4187D4124196D41009A91B2D0
:10456000ACB26143170C7C432B0C5F4392B25A43AD
:10457000A41802D301221204BF182204230C5218DB
:104580007B41019C6C431B19520ED9010A43440123
:10459000A01A81B2B2B2514303145A43360C73438A
:1045A00087B27743D617D21900277E4136049B196C
:1045B0001704160C7F185E417316ED18F3010026E0
:1045C00080337541A90F06D16400690AE8055B0ACA
:1045D000184309D22FE00422944480337541A90A7C
:1045E000A8059B0A184326D3404149412404009A58
:1045F000019B0D005543641B4343E41A95B286B2F8
:104600007543170C7E43030C5F4392B25A43B618AE
:1046100002D301221204BF183204330C52197B4119
:1046200052429C41002C02D40022013051414008EA
:10463000CA071043490802B06246D7079210084BD8
:10464000D218084B9A4203D212058918C919F0BD35
:104650000020002A01DC3900F0BD01331905F5E71F
:10466000FD030000FE070000624618CA94460029B8
:104670001ADAC01861415B463B415C46B440524681
:10468000FA40224344464D4662416B41904699466A
:104690002B46B3403D41FC401C4352465B46A24181
:1046A000AB4192469B467047C01AA1414B463B41E5
:1046B0004C46B4404246FA40224354465D4662416D
:1046C0006B4192469B462B46B3403D41FC401C4308
:1046D00042464B46A241AB41904699467047002066
:1046E00000217047002200B5203200F004F80800D5
:1046F00000BD000000220B15F1D410B5944600F067
:104700005DF81414013400DA0021CB17134C204754
:104710006244343A0CD40C2A07DA040091409040E9
:1047200052422032D440214310BDD843D94310BD5A
:10473000203207D40C469440524220321141D040DE
:10474000204310BD0800C917203203D45242203242
:10475000104110BD1800190010BD000011470010D5
:104760004A00520D144BD21A13DDFF2A1EDAD2056D
:10477000CB0FDB071A43C300400F0903490A084364
:1047800010435B0001D301D0013070474308FBD2D6
:10479000704702D0C80FC00770470A0312130132D6
:1047A000F8D1420F072AF5D1012200E0FF22C80FFD
:1047B00000028018C0057047800300000A0DCC0F6E
:1047C000531E1B05C91A520503D3C943404200D3E7
:1047D0000131520D03D0531CDB0A07D0121B0020FD
:1047E0006400611C89078912803A1203014BD21AB6
:1047F00070470000FF03000051434343C9188C4633
:10480000110C83B24B4310B4040C614392B280B2DA
:10481000504362431C041B0C001910BC5941130483
:10482000120CC0185141614470470000484041409B
:10483000484000239C46094B5B68184700239C4670
:10484000064B1B68184700239C46044BDB6818473F
:1048500000239C46014B9B6818470000C0170020AE
:10486000C10FC90700D54042002817D0F44603B451
:104870000B4B1B68984706BC81409E3840428031F4
:1048800007D20B0607D04900490AC0051043084368
:1048900060470130F8E7490A8902F5E770470000F0
:1048A000C018002041000A0E80231B067E2A0BDD63
:1048B0009E3A0BDAC1174002400818435242D040DA
:1048C000490001314843704700207047C00FC018AD
:1048D00001387047C0420DD300B5400040080021A8
:1048E00000F012F8002801D4404200BD80200006EC
:1048F00000BD0000034BDB69FC4618471CDF5D4A26
:1049000000100000C017002000239C46014B5B6A8A
:1049100018470000C0170020034BDB6FFC46184708
:104920007CDF754A00100000C017002070B513230B
:104930001D782A48FFF772F80400012D11D0012DCF
:1049400009DDA31E1B789B007F2B40DD8022210008
:10495000234800F0BDF82348FFF758F8224B1860B1
:1049600070BD542201001E4800F0B2F81F4B1A8897
:104970001F4B9A421CD1A7239B011A881D4B9A42B8
:1049800016D11D4B1A881D4B9A4211D11C4B1A8807
:1049900094239B019A420BD11A4B1A881A4B9A42C4
:1049A00006D11A4B1A681A4B9A4201D1152307E017
:1049B0001848FDF7EDFB99001748094A8850013364
:1049C0001F2BF8D9144A064B1A62DA61B7E7134B6A
:1049D000134A42211348FDF7BDFBC0465346000071
:1049E000C01700204C330000C0180020EE29000042
:1049F000C40F0000C20D0000962B0000C0B50000DF
:104A0000182B0000CC2A000010B50000FC2C000080
:104A100051ED87640C830010294A0010E0890010D2
:104A2000588A0010148A001007B56046002800D18B
:104A300000BE01880A0A0230DF2AFAD1C9B2820810
:104A400004D3028840880004104300E00068024A52
:104A50005050039007BD0000C01700200021C21570
:104A60008032803201D0024A104700207047000097
:104A7000CD2A0000C30FDB0741000A0E07D0FF2A32
:104A800008D00909054A89181943400770471900D9
:104A9000002070470249C918FAE7000000000038FA
:104AA0000000F07F10B502F0A5FC10BD10B502F0BB
:104AB00069FC10BD01480421014B18472003002068
:104AC0002D3A0010014B1B681847000020030020FE
:104AD000014B5B681847000020030020F8B5060072
:104AE0000D001700437C002B23D103681100280020
:104AF0009847F8BD337C10E0022117483368984787
:104B0000601C0134BC4217DA002CF3DD2B19013B89
:104B10001B780D3B5A425341DBB22A5D0A2AF0D181
:104B2000002BEED1A042E7DA211A28183368984703
:104B3000E2E700240020E5E7B84203DA391A281832
:104B400033689847002FD4DDED19013D2B780D3BDC
:104B50005A4253413374CCE7C48A001070B5050043
:104B60000368002B16D00C4B1C6805E0291D2A6831
:104B70002000FFF7B3FFE468002C09D02368002B66
:104B8000F9D0064B1B68002BF0D0A342F3D1EDE720
:104B900000232B6070BDC0460010002004100020D0
:104BA00070B505000C000B68802B05D023685A1CDB
:104BB0002260E418257170BD0800FFF7CFFFF5E70C
:104BC00010B582B0D0231B061C6801A9064803F06B
:104BD0007BF8002806D1019BA34203D0024803F0D2
:104BE00083F8012002B010BDB00B002010B50248C0
:104BF00003F052F810BDC046B00B0020F0B585B0F0
:104C000001900D001600FFF7DBFF07006B1C02D0C0
:104C1000164B1C6805E0019802F0CEFE0500F7E790
:104C2000E468002C18D02368002BF9D0104B1B68C7
:104C3000002B01D0A342F3D12A0001992000FFF7F5
:104C40004DFF002EECD002ABD91D0A230B700122C0
:104C50002000FFF743FFE3E7002F04D1681E8541E2
:104C6000E8B205B0F0BDFFF7C1FFF7E70010002084
:104C7000041000200C4B1A681300002B0BD0834249
:104C800002D01A00DB68F8E7002903D1DB68D360A3
:104C90000023C36070470029FCD0002A01D0D060F7
:104CA000F8E7014B1860F5E70010002010B5064B3F
:104CB0001C6800E0E468002C04D06368002BF9D085
:104CC0009847F7E710BDC0460010002070B50500FA
:104CD00002F072FE0400012201002800FFF78EFF9F
:104CE000FFF7E4FF200070BD70B5A2B004000E0015
:104CF000FFF766FF05008422002101A8FFF7E2FE0E
:104D00003300220001A90848FEF768FE040001A84C
:104D1000FFF724FFFFF7CAFF002D02D1200022B0C9
:104D200070BDFFF763FFF9E7A14B00100FB400B5AA
:104D300083B004A901C90191FFF7D6FF03B008BCF5
:104D400004B0184710B500F0BBF810BD30B583B003
:104D500004000D0001A9184802F0B6FF002808D190
:104D6000D0231B061B68019A9A4221D0124802F0F8
:104D7000BBFF002001F0E6FD002807D103246442B8
:104D80000D4802F089FF200003B030BD002001F083
:104D9000FDFD002802D103246442F1E72A0021002E
:104DA000002001F001FE041EEAD103246442E7E77B
:104DB00003246442E7E7C046A016002010B5002196
:104DC000054802F081FF002800D110BD01F066FB0C
:104DD000014802F061FFF8E7A0160020F0B5C646D2
:104DE00000B582B080460D0001A92E4802F06CFF8C
:104DF000002808D1D0231B061B68019A9A420FD0C5
:104E0000284802F071FF002001F09CFD002847D1E6
:104E1000254B0020002118605960224802F03CFF19
:104E200002B004BC9046F0BD01F038FB002001F058
:104E3000D3FD002001F086FD0028EED0002001F017
:104E400049FE00281DD0AC42E7DA2E1B002001F0FD
:104E500041FE864200DC30000028E5D043461919A7
:104E60000200002001F01AFE060001F017FB0020EE
:104E700001F0B2FDA419FCF7A1FD0B4B18605960BD
:104E8000E1E7FCF79BFD084B1E685F68074A0023BB
:104E900092197B419942C0D8D5D19042D3D9BCE771
:104EA0000024D0E7A0160020D00B002020A107008E
:104EB00010B51F20FDF784FBFA208000002110BDF3
:104EC00010B584B01C4B1B7802F03EF81B491F2024
:104ED000FDF786FB01211F20FDF76AFB1848FCF750
:104EE00075FEFCF70BFB0400FCF768FDFA2292004C
:104EF000002312184B41994214D901225242D31770
:104F000001210291002101910E4900912000FCF73E
:104F10004FFB0400631E9C41E4B2002807D120002F
:104F200004B010BD9942EBD19042E6D8E8E70121E8
:104F30000548FFF79FFEF2E7F0900010BD4D00100E
:104F4000A0160020B14E001030030020004870472A
:104F5000688B0010004870471C8B001010B50028AB
:104F60000BD10F4B0F4A5A80012301335B00C02243
:104F7000920013430A48038010BD04280ED8800015
:104F8000094BC4580023122BEFD8E25C002AECD066
:104F90000133590002484252DBB2F4E70020EBE74C
:104FA000D80F0020090400007C8B00107F220240F3
:104FB000C3093420584368235343C018014BC01819
:104FC0007047C0460C10002010B582B001AB002223
:104FD0001A7080325A70002408E001AB185DFFF7A8
:104FE000E5FF01234371002303750134012CF4D93B
:104FF00002B010BD10B5C36A402B00D8402316493B
:105000000A680261D3180B60990604D03F218B43D4
:10501000403311490B60104B19688B0610D10F4BB0
:105020005A404B40802149018B420FD83023C35C4A
:105030009B061A43A0231B061A4383681A6010BDFF
:10504000074B084A59210848FDF784F8074B054AE1
:105050005B210548FDF77EF88C16002000001050FB
:105060006C8C0010908B00109C8C0010EC8C00104D
:10507000F8B504007F2008404FB2FE0F2171667022
:10508000FD43ED0FE570A070002823D1012161716F
:10509000012B21D0402A26D8E2623022A354002ED0
:1050A00025D0C3001A4A94466344E360E3680022B3
:1050B0001A60A378002B20D0002F22DB0138C0001B
:1050C000144B9C466044A0602000FFF793FF01232F
:1050D0002370F8BD0021DAE70F498A42DCD91100BC
:1050E0000E48FDF755F811000C48FDF751F8C300C4
:1050F0000B4A94466344E360D8E7A360094B2361FD
:10510000E5E70138C000084B9C466044A060DBE73F
:10511000800010500C001050FF030000208D001084
:1051200084001050000110500800105070B50400A9
:105130000D001600FFF73AFF33002A002100FFF7A9
:1051400097FF70BDF0B5CE46474680B583B0264B7D
:105150009B6D9846002701240AE0244B244ADF2156
:105160002448FCF7F7FF4346A34398466400013701
:105170004346002B33D01F2F31D843461C42F5D075
:10518000194BDB6D1C42E8D11B4B9C657B0801264B
:105190003E4072425641F6B2FF221A4091463425F3
:1051A000754368235343ED18144BED18280000F0A5
:1051B000C7FA0028D7D034235E4334334A465343DA
:1051C000F6180E4B9E19F2693179012300930023E2
:1051D000002000F049FE280000F0F4F9C3E703B016
:1051E0000CBC90469946F0BD00001150788D00101F
:1051F000A48B00109C8C0010003011500C1000206B
:1052000070B51B4A9823D458E30307D40025E3065E
:1052100012D4E30415D4A54225D170BDFFF7D4FE06
:1052200001221449002000F005FE134B8022920257
:105230001A6580256D02EAE710231D43FFF782FF00
:10524000E7E700230D4A1370094A136080235B01CE
:105250001D4301220121002000F0D8FD064B8022D1
:1052600012031A65D7E7290061400548FCF790FF53
:10527000000011500000105000301150BA160020EC
:10528000648D001070B50C0015001E00FFF78EFE37
:1052900033002A00210000F07FFA70BD10B5FFF73F
:1052A00093FE0123002200218020FFF7EBFF10BDB9
:1052B00010B50400037D002B11D18378002B05D19C
:1052C0004378002B12D00122094B9A6680221201EA
:1052D0000849200000F080F90123237510BD8421C6
:1052E000054B064A49000648FCF734FF0222EBE76B
:1052F00000201150FFF7FFFF488D0010BC8B0010FD
:105300009C8C001010B5FFF751FEFFF7D1FF10BDC8
:1053100010B504008378002B05D14378002B0AD008
:105320000122064B9A6600220549200000F054F93C
:105330000023237510BD0222F3E7C0460030115050
:10534000FFF7FFFF10B5FFF731FEFFF7E1FF10BDDC
:1053500010B5002804D101210520FDF729F910BD61
:105360007E21034B034AFF310348FCF7F3FEC0469E
:10537000588D0010DC8B00109C8C001010B500289C
:1053800004D1064B1970FFF789FF10BDC521044BEE
:10539000044A49000448FCF7DDFEC046BA16002066
:1053A000588D0010EC8B00109C8C001010B500285C
:1053B00004D1064B80225202DA6410BDD221044B84
:1053C000044A49000448FCF7C5FEC04600201150BD
:1053D000588D0010FC8B00109C8C001010B5041E22
:1053E00028D100F0C7F817490520FDF7F9F8D022B9
:1053F000D20000211448FFF765FB144B00221A70FD
:10540000134B144A1A60002240210020FFF78EFE41
:10541000002240218020FFF789FE0F4B01221A64F1
:1054200080229205DA6490220C4999502000FFF7FF
:10543000BDFF10BD60210A4B0A4AFF310A48FCF744
:1054400089FEC046015200100C100020BA16002040
:105450008C16002080011050000011501010010027
:10546000588D0010D08B00109C8C001010B50028B7
:1054700008D10B785B0602D14B78052B09D0FFF7DA
:10548000A3FD10BDB021054B054AFF310548FCF7CF
:1054900061FE054B1A78054B1A60F0E7588D001035
:1054A000088C00109C8C0010BA16002000001150CF
:1054B00010B50C0000280DD109796279072313403B
:1054C0001B021943E2789207920FA078FFF72EFE95
:1054D000012010BDC021034B034AFF310348FCF7F4
:1054E00039FEC046588D0010248C00109C8C001092
:1054F00010B50C0011001A00002805D1012320006E
:10550000FFF7C0FE012010BDE321034B034A490011
:105510000348FCF71FFEC046588D0010348C001065
:105520009C8C001010B5002803D10800FFF7EAFE9C
:1055300010BDD021024B034AFF310348FCF70AFE9D
:10554000588D0010448C00109C8C001010B5002861
:1055500003D10800FFF7F6FE10BDEB21024B034A12
:1055600049000348FCF7F6FD588D0010548C0010DC
:105570009C8C001010B580235B040D4A13600D4A0B
:1055800013600D4B9A6880235B049343F9D10B4C55
:105590009C2200212000FFF795FA80225201002171
:1055A0000748FFF78FFA092363670333A36710BD2A
:1055B00000E0004000F0004000C00040000011503A
:1055C0000000105000230375437532228354836119
:1055D000C36103628362704710B5002902D0C368BB
:1055E0001B681940002A0FD0114353050CD5C2681F
:1055F00013685B050BD40A4B0B401360FFE7FFE712
:10560000FFE7FFE7FFE7FFE7C368196010BD817898
:1056100043789B00034A9A580348FCF7B9FDC046FB
:10562000FFFBFFFF44030020B08D001070B50400A5
:10563000056A8022D2002A43C378002B14D06379F4
:10564000002B1ED0802189010A4301214B40637148
:105650002423E35C002B02D08023DB011A430021CA
:105660002000FFF7B9FF70BD836AC26994466344A6
:1056700019002A000069FFF72BFA842212022A433C
:10568000DDE70021E0E770B504000E001500437D62
:10569000002B18D1A5610023E3612B1CAAB2402A7C
:1056A00000D940239BB2236201226275A662ED1AE3
:1056B0006B425D412423E55401330022E254200073
:1056C000FFF7B4FF70BDFFF77DFFE3E770B504009F
:1056D000C3681B689D05AD0DC278002A13D11B0459
:1056E0000BD4C3695B19C361E378002B04D0236A30
:1056F000AB4201D9E369A36170BD0D4B0D4ABF21D7
:105700000D48FCF727FD1B040CD5836AC26994463B
:10571000634418002A002169FFF7DAF9E3695B198D
:10572000E361E1E7054B034AC9210348FCF712FD99
:10573000308E0010848D0010508E0010A08E00104E
:1057400070B50400457D002D17D0FFF7BFFFA1699C
:10575000E2698B1A402B00D940232362D318CB1A5D
:10576000584243412420235491420BD303D02000BC
:10577000FFF75CFF0025280070BD8178034A0448CC
:10578000FCF706FD0348FCF703FDC0464403002078
:10579000E08D00100C8E001010B50478002C04D0A1
:1057A000002B09D1FFF7CCFF10BD0C21044B054A9B
:1057B000FF310548FCF7CEFCFFF765FFF4E7C04674
:1057C000D08D00109C8D0010508E001070B50024FC
:1057D00003E00D782C19A4B2491994420AD24D78ED
:1057E000052DF6D18E787A3535406D004519F609CC
:1057F000AB55EEE770BD000070B505001C4C3722BC
:1058000000212000FFF75EF9E01C1022FF21FFF7C6
:1058100059F9200013301222FF21FFF753F900F04D
:10582000D9FF002411E0E31ADBB2002B07D1DA0024
:10583000D21A91000F4B5B1802E02300F5E700231A
:105840005B68280098470134E4B20B4B1B785A1C64
:1058500094420BDA094A002AEFD0A342E3D9E200CE
:10586000121B9100064B1B685B18E9E770BDC04630
:10587000580F0020EC8F0010B81600200000000028
:10588000280C002070B505000C001600086900F017
:10589000ABFFE36831002800984770BDF0B5CE46F5
:1058A000474680B583B001900139C8B2FFF752FB7B
:1058B000002802D04378022B0AD0624A624963482A
:1058C000FFF734FA002003B00CBC90469946F0BDB7
:1058D000C5796B1101225E4C134019012378102603
:1058E000B343AD112A4052010B4320218B43134394
:1058F0002370060009368278C3781B021343804662
:1059000098447CE03378B146F61880E0CA229200D1
:105910004D494E48FFF70AFA0020D4E7E31ADBB2FC
:10592000002B07D1DA00D21A92004A4B9B1802E0F2
:105930002300F5E700239B682A003100019898476F
:10594000071E13D10134E4B20094434B1B785A1C58
:1059500094424EDA414A002AEAD0A342DED9E2005C
:10596000121B92003E4B1B689B18E4E7082818D9CD
:10597000854216D3B278364B9B18DB78FF2B17D1B4
:10598000334B9B18DC704B46002B2AD09A78B378A7
:105990009A4214D14B461A7973799A420FD1012356
:1059A0001BE0304A28492948FFF7C0F900208AE760
:1059B0002D4A25492548FFF7B9F9002083E72B4AEE
:1059C00021492248FFF7B2F900207CE7B178591845
:1059D0001F4A5218D4700133DBB24A46D2789A4239
:1059E000F4D81B4823003A0031001330FFF7EEFED5
:1059F000F619194B1B780133009A9A4210DA464582
:105A000016D273780B2B00D17CE70023994673786C
:105A1000042B00D07AE743469D1BADB2002493E7E8
:105A2000D522920008490948FFF780F900204AE78B
:105A30000F4B002B03D000E000BF012043E7012003
:105A400041E7C046130300009C8F001050900010E7
:105A5000580F0020EC8F0010B81600200000000046
:105A6000280C002036030000390300004303000027
:105A700000000000F0B583B004000D008B78C878FA
:105A800000021843030AC0B20F2B60D89B00334AB0
:105A9000D3589F46FFF75AFA02001223290020002C
:105AA00000F046FE54E02E4B002B10D000E000BF6B
:105AB00006006B469F1D811C02223800FFF708F884
:105AC0003B8832002900200000F032FE40E0002038
:105AD0003EE0FFF73FFA061E0DD06B469F1D811C6E
